:100000000C9489030C94A6030C94A6030C94C11CB5
:100010000C94A6030C94A6030C94A6030C94A603BC
:100020000C94A6030C94A6030C9464230C9438241B
:100030000C94A01E0C94A6030C94A6030C94A60387
:100040000C94A6030C94A6030C94A6030C94A6038C
:100050000C94A6030C94431F0C94A6030C94A603C3
:100060000C94A6030C94A6030C94A6030C94A6036C
:100070000C94A6030C94A6030C94A6030C94A6035C
:100080000C94A6030C94A6030C94A6030C94A6034C
:100090000C94A6030C94A6030C94A6030C94A6033C
:1000A0000C94A6030C94A6030C94A603000501056A
:1000B0000205030504050505000601060206030600
:1000C00004060506000701070207030704070507E2
:1000D00000080108020803080408050800090109CE
:1000E00002090309040905090000010002000300D8
:1000F00004000500000101010201030104010501E2
:1001000000020102020203020402050200030103CD
:1001100002030303040305030004010402040304AF
:100120000404050435001E001F00200021002200E9
:10013000290014001A000800150017002B00040005
:100140001600070009000A00E1001D001B00060060
:1001500019000500E300E200E000E3002C008274D7
:100160002D00270026002500240023002A0013006C
:1001700012000C0018001C00340033000F000E00A9
:100180000D000B00E50038003700360010001100AC
:10019000E700E600225223522800000035001E002E
:1001A0001F00200021002200290014001A0009006D
:1001B00013000A002B0004001500160017000700AA
:1001C000E1001D001B00060019000500E300E2002D
:1001D000E00022522800A800350027002600250054
:1001E000240023002A0033001C0018000F000D001B
:1001F000340012000C00080011000B00E50038006C
:100200003700360010000E00E700E6000100235220
:100210002C00000001003A003B003C003D003E0085
:1002200035001E001F0020002100220001001E02D8
:100230001F0220022102220201002E002D002E02A8
:100240002F02300201000100010001000100010045
:10025000440043004200410040003F0045002700A9
:100260002600250024002300310227022602250251
:1002700024022302010031003302330030002F003A
:1002800001000100010024520100010001000100F1
:100290000100010001000100010049004600650065
:1002A000000000000100E200E000E1000000390071
:1002B00001001D011B0106011901000001000100E0
:1002C00001002452010001000100010001000100B1
:1002D000010001002A002A014F01520050014B0089
:1002E0002A004C004F00510050004E000100000059
:1002F0004D0000004A000000010001000100010063
:1003000001000100000000000000000000000000EB
:10031000007C0000405241521D70000000000000AF
:100320001D70000000000000000000000000000040
:1003300000000000010001000100010001000000B8
:1003400000000000000000000000000000000000AD
:10035000000000000000000000000000A900A8004C
:10036000AA00000000000000AB00AE00AC000000DE
:100370000100010001000100010000000100010076
:100380000100010001000100010001000100010065
:100390000100010001000100010001000100010055
:1003A0000100010001000100010001000100010045
:1003B0000100010001000100010001000100010035
:1005D0000100010000000000000000000000000019
:1005E000000000000000000000000000000000000B
:1005F00000000000000000000000000000000000FB
:1006000000000000000000000000000000000000EA
:1006100000000000000000000000000000000000DA
:1006200000000000000000000000000000000000CA
:1006300000000000000000000000000000000000BA
:1006400000000000010000000000000000AE00AF4C
:1006500000DA0281FFD9F1DB20A4A62EAF00A0C0F2
:1006600000A1C800AED580A81FD300408D14200083
:100670000C0353006F0066006C00650000001A0355
:100680004A006F007300650066004100640061006D
:100690006D00630069006B00000004030904090297
:1006A0002200010100A0FA09040000010301010079
:1006B0000921110100012240000705810308000102
:1006C000120100020000000832FC87020100010252
:1006D000000105010906A101050719E029E7150038
:1006E00025019508750181029501750881010507AD
:1006F000190029FF150026FF0095067508810005E1
:100700000819012905950575019102950175039157
:1007100001C011241FBECFEFDAE0DEBFCDBF11E074
:10072000A0E0B1E0ECEEFDE402C005900D92A2362F
:10073000B107D9F724E0A2E6B1E001C01D92A03ACA
:10074000B207E1F70E94E9150C94AE260C94000064
:100750008B30B8F46A30A8F4463098F450E096E054
:10076000699F400D511D1124FA019CE3899FE00D02
:10077000F11D1124EE0FFF1FEC5DFE4F859194914A
:10078000089580E090E008950E94A803089581E014
:10079000089581E008950E94C903089508950E9474
:1007A000CE030895A5E0B0E0E8EDF3E00C942E262A
:1007B00049835A833091710189819A81311119C01D
:1007C000662399F0222389F00E94070A182F682FC8
:1007D00089819A810E94E30969817A81812F0E942F
:1007E0009E102596E3E00C944A260E94F509182FE6
:1007F000F3CF0E94070A69817A81F1CFFC01262F8D
:10080000408151816281738184810E94D203089565
:1008100081E00895CF93DF93EC0160E00E94FE0336
:10082000BE010E94CF03DF91CF9108950E94F6117F
:1008300008950E94FA11089508950E94B2080E9436
:100840001C042FEF84E39CE0215080409040E1F7AE
:1008500000C0000008950E941D040E94671F0895B3
:100860000E941D040E94781F08950F931F93CF9339
:10087000DF938C0161E00E94FE03EC01B8010E944D
:10088000CB03811106C080E0DF91CF911F910F91C2
:100890000895B801CE010E94F11A8823A1F3B8018E
:1008A000CE010E941518882371F3B801CE010E9471
:1008B000631A882341F3F8018281882361F0C330F1
:1008C000FCE7DF07E9F058F4C115ECE7DE07A9F013
:1008D000C130DC47B9F0C8010E94C703D5CFCB3582
:1008E0008CE7D807A9F0CC35ECE7DE0771F0CA3504
:1008F000DC4789F70E942F0EEECF0E942B04C3CF56
:100900000E94370E0E943004BECF0E94250EE3CF16
:100910000E94330EE0CF0E947D1E0E94B7040E9409
:10092000BD1708950E94BB040E94821E0895089579
:100930000E949704089581E008950895CF93DF936E
:10094000D82F0E949B04C82F882319F08D2F0E9456
:100950009D048C2FDF91CF9108950895CF93C82FD8
:100960000E9498048C2F0E949E04CF91089580E0ED
:100970000E94AE0408950E94E71D0E94AE040895EF
:10098000CF930E94E71DC82F809164018C1779F0E6
:10099000C09364010E940C1F60936501709366010F
:1009A00080936701909368018C2F0E94AE04CF91D1
:1009B0000895442319F08091730108959C0143E048
:1009C000369527954A95E1F7620F731F877099272F
:1009D00021E030E001C0220F8A95EAF7FB01908107
:1009E000922381E009F480E00895FC01E770FF277D
:1009F00021E030E001C0220FEA95EAF733E0969556
:100A000087953A95E1F7FB01E80FF91F80814423B0
:100A100019F0282B2083089520952823FBCF0F93CE
:100A20001F93CF93DF938C01DC0111968C9111976A
:100A30008A3048F5CC91C63030F5D0E0B6E08B9FD7
:100A4000C00DD11D1124F801428169E671E0CE018B
:100A50000E94D90440E0882389F0CE01880F991FB5
:100A6000FC01E355FF4FE491D8011196EC931197E7
:100A7000FC01E455FF4FE491EC9341E069E671E03D
:100A8000CE010E94F504DF91CF911F910F9108953F
:100A9000ABE0B0E0EEE4F5E00C942F264F835887EE
:100AA00069877A878B8761110E94700D8A859B8583
:100AB000892B29F08F81988589238F3F39F51E82F4
:100AC0001D8285E0FE013796DE01119601900D92A0
:100AD0008A95E1F78C819D81892B61F449815A8146
:100AE0006B817C818D819E810E94730C2B96E2E04C
:100AF0000C944B2689819A8189238F3F79F3CE010B
:100B000001960E9408048111E9CFF0CFCE0107962B
:100B10000E940F05D4CFFC01808191810E94390A87
:100B200092959F70963051F4863F41F08091730109
:100B300091E0892780937301909372010895CF9378
:100B4000C82F8823B9F08CEF8C0F813AA8F46C2F52
:100B500080910001909101010E94181E882329F0C4
:100B60008C2F0E940A0D0E94910D8C2F0E94020D65
:100B70000E94910DCF91089580E28C0F8830D0F7BC
:100B8000C77081E001C0880FCA95EAF70E94530D33
:100B9000EFCF882341F09CEF980F913A28F40E9400
:100BA0000A0D0E94910D089590E2980F9830D8F7A1
:100BB000877091E001C0990F8A95EAF7892F0E940A
:100BC000590DEFCF1F93CF93DF93182FEB010E94A6
:100BD0009F05209739F4812F0E94C905DF91CF919D
:100BE0001F9108958FE99FE00197F1F700C0000081
:100BF0002197EFCF6AE070E0893311F460E570E08F
:100C00000E94E2050895882321F00E94530D0E945E
:100C1000910D0895882321F00E94590D0E94910D95
:100C20000895B0E0A0E0E7E1F6E00C9428266C011E
:100C3000C62F172FFC01D281058102950F700E94EB
:100C4000490DE82E8823D1F0DD2329F1812F807F03
:100C5000803441F090E29C0F9830E8F0803611F437
:100C6000C63FC9F08091700282FF15C082E00E94E9
:100C7000F40D0E94490D91E0E82EE926B12EB294C0
:100C80009FE0B922FBE0FB15C0F1EB2DF0E0E05551
:100C9000F94D0C941926E12CF1CF012F0F70812F03
:100CA000807F11F00295007FDD2399F0002359F039
:100CB00080E28C0F883010F0C11107C0802F0E9495
:100CC000530D0E94910D8C2F6DC0802F0E94630DDB
:100CD000F8CF8C2F0E94C905002379F080E28C0F99
:100CE000883010F0C11104C0802F0E94590D03C03C
:100CF000802F0E94690D0E94910D2B2D2850330BDF
:100D00002430310520F40E94E71D0E94AE04DD234B
:100D100039F0107F103611F4C63F11F00E943C0DDF
:100D2000EE2089F00E941F0D80FD0DC0F601128299
:100D30000E94190D0E944109C6010E947E080E946E
:100D4000190D0E945109CDB7DEB7E9E00C94442695
:100D5000212F2F70F22E812F807F803219F0F29494
:100D600080EFF822CC2381F0C13009F449C0DD23A3
:100D700009F451C0002309F448C0F601858180FFC1
:100D8000A2CF8F70858341C08091700282FD15C013
:100D9000DD2359F0FF2029F08F2D0E94530D0E9472
:100DA000910D80E00E949F05A8CF80E00E94C905B8
:100DB000FF2009F4A2CF8F2D98CFDD2381F0011100
:100DC00006C00E94730D8F290E94030696CF013042
:100DD000C1F70E94730D8F290E947A0D8ECF0111E9
:100DE00006C00E94870D8F2D0E940A0686CF013013
:100DF00009F483CF8F2D0E940A060E94870D7DCFB4
:100E0000DD2329F0063008F078CF8F2DDDCF0530B7
:100E100008F073CFE8CF002331F3C93309F0EDC0F8
:100E2000FFEF27EE33E0F15020403040E1F700C003
:100E300000008C2F0E94C90560CF812F8370A9F517
:100E4000D1115BCF2C2F229526952770220F220FD0
:100E50004C2F4F7050E0022E02C0440F551F0A94D1
:100E6000E2F790E080E0C4FF09C08FE090E002C0AC
:100E7000880F991F2A95E2F780959095212F269546
:100E800026952370842B952B223049F058F421307D
:100E900019F00E94110931CF0E9408092ECF0E943B
:100EA0001A092BCF0E94050928CF8695DD2311F062
:100EB000812F8170882309F420CF2C2F229526952D
:100EC0002770220F220F4C2F4F7050E0022E02C0CD
:100ED000440F551F0A94E2F790E080E0C4FF09C078
:100EE0008FE090E002C0880F991F2A95E2F7809565
:100EF0009095212F269526952370842B952B2230B3
:100F000049F058F4213019F00E947C09F6CE0E9475
:100F10007309F3CE0E948509F0CE0E942909EDCE17
:100F2000012F0F70DD2329F0802F0E9441098C2FA3
:100F30004BCF8C2F0E940A06802F0E945109DDCED4
:100F4000C23F41F160F4C03FB9F0C13F81F0DD2301
:100F500009F447C00111B7CE812F8F711FC0C33F65
:100F600001F1C43FA1F78091700282FD24C0812F5E
:100F70008F71DD2311F312C0DD2341F0053008F03D
:100F8000BCCE812F8F710E946309B7CE063008F066
:100F9000B4CEF7CF812F8F71D111CFCF0E944109ED
:100FA000ACCEDD2329F0812F8F710E943509A5CEAB
:100FB0000E943009A2CEDD2351F0012F0F71802F46
:100FC0000E94410963E0802F0E94D60D96CE81E0F9
:100FD0000E94F40D023008F490CE82E00E94F40DDD
:100FE0008CCE002379F0C93341F49FEFE7EEF3E0B4
:100FF0009150E040F040E1F71ACF8FE39CE9019770
:10100000F1F715CF812F8F7198CFE0E1EC0FE7302A
:1010100090F5F0E0E454F94D0C941926DD2309F421
:101020006CCE8091730191E089278093730165CE26
:10103000D093730162CE81E08D27F7CFD1115DCEC1
:1010400081E0F3CFD11159CE1092730156CEDD233A
:1010500019F00E94230D51CE0E942F0D4ECEDD239C
:1010600039F0809172018823E1F21092720145CE2D
:101070000530B8F242CE809172010023D9F0882366
:1010800041F08091730191E0892780937301109260
:101090007201D11118CEEFE3FCE93197F1F700C0EE
:1010A00000008C2F0E94C90586E0F60111928A95F6
:1010B000E9F723CE882309F420CED1111ECE8091EA
:1010C000730191E0892780937301CFCF0F931F9312
:1010D000CF93DF93EC01688179818A810E94440A71
:1010E0008C010E948E090E940409B801CE010E9461
:1010F0001106DF91CF911F910F910895CF93DF9348
:10110000EC018B819C81892B29F08881998189232D
:101110008F3F51F4DF91CF910895CE010E94660870
:10112000CE010E940A04F6CFCE010E94350481113F
:10113000F4CF0E94490D882369F38A81882351F3F3
:101140008091700282FFE6CF82E00E94F40DE2CF30
:101150000E94700D0E94910D08950E94120D0E9430
:10116000A80808950E94600D0E94AD080895929508
:101170009F70963091F058F4925F9F70923058F4BF
:10118000803F19F030F4883E30F481E008959A5F92
:10119000F4CF843FD1F380E00895883EB0F3813FDF
:1011A000D1F7F3CFFC0183819481892B29F08081D1
:1011B000918189238F3F11F480E00895808191818E
:1011C0000E94390A0E94B7080895A5E0B0E0EBEE4E
:1011D000F8E00C942F262596E2E00C944B26A6E02E
:1011E000B0E0E5EFF8E00C942F262696E2E00C94B0
:1011F0004B2608950E94F90808950E94FA089093DA
:10120000970180939601089508950E94FD0808951E
:101210002091960130919701822B932B0E94FD081B
:1012200008952091960130919701822393230E9483
:10123000FD08089520919601309197018227932708
:101240000E94FD0808950E94F90808950E9423094C
:1012500008950E9426099093950180939401089522
:1012600090E080E00E942909089521E030E0A90182
:1012700002C0440F551F8A95E2F7CA010E9429094E
:10128000089521E030E002C0220F331F8A95E2F773
:101290008091940190919501822B932B0E942909B2
:1012A000089521E030E002C0220F331F8A95E2F753
:1012B00020953095809194019091950182239323FC
:1012C0000E942909089521E030E002C0220F331F57
:1012D0008A95E2F780919401909195018227932756
:1012E0000E94290908952091940130919501822B43
:1012F000932B0E9429090895209194013091950122
:10130000822393230E94290908952091940130910A
:101310009501822793270E94290908950895262F71
:10132000277091E001C0990F2A95EAF723E076959E
:1013300067952A95E1F7660F771F660F771FFA0109
:10134000E60FF71F50E040E0682F70E08191DF0169
:1013500011979B01042E02C0369527950A94E2F757
:10136000217021952827292328272C934F5F5F4F31
:101370004430510559F70895A82FA77023E096959A
:1013800087952A95E1F7880F991F880F991FFB0110
:10139000E80FF91F50E040E080E0219130E00A2E94
:1013A00002C0369527950A94E2F721703327042E60
:1013B00001C0220F0A94EAF7822B4F5F5F4F44303F
:1013C000510559F70895262F9A3070F4863060F44D
:1013D000682F70E086E0989F600D711D112444E72E
:1013E00051E0822F0E948F090895292F9A3068F4C6
:1013F000863058F490E064E771E036E0239F800D7A
:10140000911D11240E94BC09089580E00895B0E068
:10141000A0E0EDE0FAE00C9428267C010091940114
:10142000109195018091960190919701082B192BAD
:10143000CFE0D0E0CC24C394D12CBC2EC6010C2E1E
:1014400002C0880F991F0A94E2F780239123892B09
:1014500049F4219790F7B12C8B2DCDB7DEB7E9E099
:101460000C944426B7018C2F0E94AA10019789F38F
:10147000F3CFCF93DF93EC010E94070ABE010E94D5
:10148000AA10DF91CF9108951F93CF93DF93EB01C3
:1014900090917101992339F0CB010E94390ADF91B3
:1014A000CF911F910895882369F0CB010E94070A0C
:1014B000182F682FCE010E94E309BE01812F0E94E0
:1014C000AA10EDCFCB010E94F509182FF6CF1F937C
:1014D000CF93DF93C091980116E0809199018C130E
:1014E00004C0DF91CF911F910895D0E01C9FF001BF
:1014F0001D9FF00D1124E656FE4F408151816281FF
:101500007381848195810E94EF082196C770E5CF91
:101510004091CA015091CB016091CC017091CD01F5
:101520008091CE019091CF010E94EF0808951F9302
:10153000CF93DF938091CF01807F09F049C08091E4
:10154000CC01882309F444C080919801C09199018D
:101550006091CA017091CB01A091CD01B091CE01F3
:10156000D62FD72316E0C81799F190E0109711F005
:10157000DF3F19F401968770F6CF189F9001199FED
:10158000300D1124F901E656FE4F41814713F2CF89
:1015900040814613EFCF42814111ECCF438154810A
:1015A0004A1B5B0B4436510528F78091CF018F70A1
:1015B00080618093CF01F901E156FE4F80818F70E9
:1015C000806180838AEC91E00E947E080E94670A15
:1015D000DF91CF911F910895A1E1B0E0E2EFFAE031
:1015E0000C9427268C0185E0F801DE011D96019000
:1015F0000D928A95E1F7F801E2808AECC82E81E02D
:10160000D82E6091CD017091CE016115710509F45C
:101610004EC19091CA012091CB01892F82238F3F27
:1016200009F445C140815181A380B480F090CC0180
:10163000F501E61BF70BFF2009F4EAC08091CF010A
:10164000382F307FE436F10508F0A3C031116DC0AA
:10165000FE2C251316C0941314C0E11012C08F7015
:1016600080618093CF010E94880AC6010E947E0893
:101670008091CF01F80185838F2D6196EAE00C946B
:101680004326A114B10429F0842F85238F3F09F04C
:1016900027C180E0F82FF170DF2E80FF3CC08091E1
:1016A00098012091990136E0821315C04D875E871D
:1016B0008D859E850E94390A292F22952F70223010
:1016C000F0F0243018F59F70F1F0F8019581907FCB
:1016D000D1F4D12C1EC090E0389FF001399FF00D5D
:1016E0001124E656FE4F6181651306C060816413C4
:1016F00003C06281E6120FC001968770D5CF9F703C
:1017000011F0882331F3805E883018F3C8010E94FD
:101710007E08FD2CB1CFEE2009F4AECF8091CF0131
:1017200081608093CF01F12CA7CF251306C09413BD
:1017300004C0F801EE2009F487C0C8010E94D20855
:10174000882319F1EE2009F18091CF01803270F0E9
:101750002091CA013091CB0138872F831986BB862F
:10176000AA868C87CE0107960E947E0886E0F80143
:10177000AAECB1E001900D928A95E1F70E94970AD8
:101780000E94880AFF24F39477CFC8010E947E0844
:10179000F9CF311113C07A2DB98AA88A6E2D8989A3
:1017A0000E94E5088AEC91E00E947E0886E0F6013E
:1017B00011928A95E9F70E94880AB5CF25130FC0C8
:1017C00094130DC0E1100BC0F8018583C8010E947D
:1017D0007E0886E0F60111928A95E9F74DCFC8019F
:1017E0000E94D208882389F2EE2079F28091CF01FD
:1017F000803208F4BBCF2091CA013091CB013A83EB
:1018000029831B82BD82AC828E83CE010196ACCF30
:10181000E436F10508F03EC0FE2CEE2009F4B5CF09
:1018200025132AC0941328C08091CF0180FD1BC0CE
:10183000982F907FC1F0F8018583903F31F0982F69
:10184000907F905F8F70892B8583C8010E947E08EE
:1018500086E0F801AAECB1E001900D928A95E1F7DB
:101860000E94880A09CF86E0F801AAECB1E0019055
:101870000D928A95E1F700CFC8010E94D20881112C
:1018800075CF8091CF0181608093CF01C8010E9404
:101890007E08F2CE7A2DB98AA88A6E2D89890E9497
:1018A000E50886E0F60111928A95E9F7D9CFEE2096
:1018B00009F46BCFC8010E94D208F82E882309F4DE
:1018C00064CF86E0F801AAECB1E001900D928A9510
:1018D000E1F78AEC91E00E948B050E94970AC0CF45
:1018E00081E08E25D7CEACE0B0E0E9E7FCE00C94D7
:1018F0002E264F83588769877A878B879C87CE01EE
:1019000007960E94EC0A882369F08A859B85892BBB
:1019100039F04F815885842F85238F3F09F06BC0A4
:1019200016E05FC086E0FE013796DE011196019059
:101930000D928A95E1F78A859B85892B89F38885A5
:101940009F8189238F3F61F32091990130E0C90184
:10195000019687709927409198014817190671F4EC
:101960000E94B208109299011092980186E0EAEC68
:10197000F1E0DF011D928A95E9F7D2CF96E0929FC0
:10198000D001939FB00D1124A656BE4FFE01319693
:1019900001900D929A95E1F7809399010E94670A50
:1019A000BFCF819FC001112486569E4F0E94EC0A32
:1019B0008823E9F0E09198011E9FF0011124E6567A
:1019C000FE4F4081518162817381848195810E94A3
:1019D000EF088091980190E0019687709927809395
:1019E000980180919801909199018913DACF2C96F2
:1019F000E3E00C944A2669857A858B859C850E9454
:101A0000EF088ECF682F80910001909101010E9414
:101A10004E1E0895682F80910001909101010E944F
:101A2000511E089580910001909101010E94541E61
:101A300008958091D9018595859585950895809122
:101A4000D9018770089582E08093D80181E0809366
:101A5000730108951092D801109273010895809136
:101A6000D801823021F481E08093D8010895833039
:101A700011F40E942A0D08958091D801823021F43A
:101A800083E08093D8010895813011F40E942A0DDB
:101A900008959091D901977081E009F480E008954C
:101AA0008091E40108959091E401892B8093E401F1
:101AB000089580959091E40198239093E40108950E
:101AC0001092E40108959091E301892B8093E30142
:101AD000089580959091E30198239093E3010895F0
:101AE0001092E30108958091DA01089508950E940B
:101AF000760D08959091700292FF08C09091DA01DE
:101B0000981721F08093DA010E94770D0895809153
:101B1000DA01882329F01092DA0180E00E94770D23
:101B20000895CF93DF93E0910001F091010180913E
:101B3000E4018083E0910001F091010180819091A6
:101B4000E301892B80839091DA01992381F0E09160
:101B50000001F09101018081892B80838091000137
:101B6000909101010E94061E81110E94870DC09173
:101B70000001D091010148E050E060ED71E0CE013C
:101B80000E945626892B59F088E0FE01A0EDB1E0B5
:101B900001900D928A95E1F7CE010E94FB1DDF9125
:101BA000CF91089508950E94D20D089590917002EA
:101BB00092FF11C098E0899F90011124622B6093DD
:101BC000D9010E9441098091D90185958595859516
:101BD0000E94D30D08950E94410908951092D901E1
:101BE00080E00E94D30D08959091D90180958923BA
:101BF0008093D901282F277091F4282F082E000CEC
:101C0000330B9217130659F09091700292FF07C0A0
:101C10008595859585950E9451090E94EE0D089540
:101C20009091700292FB222720F9281769F080FB1F
:101C300092F99093700280916F02909170020E94CD
:101C4000580E82E00E94F40D08958091700282FB8C
:101C5000882780F991E089270E94100E089581E07D
:101C60000E94100E089580E00E94100E08956FEFFC
:101C70007FEF90E080E00E949826089590E080E059
:101C80000E94742621E0873E9E4F09F020E0822FBB
:101C9000089582E090E00E946C26089583E090E031
:101CA0000E946C26089584E090E00E9474260895B6
:101CB000BC0184E090E00E9498260895AB01BC012D
:101CC0008FE090E00E948C260895AB01BC0183E177
:101CD00090E00E948C26089560E070E0CB010E94A5
:101CE000650E089560E070E0CB010E945E0E0E94D8
:101CF0006C0E089567EE7EEF90E080E00E949826DB
:101D000060E082E090E00E947A2660E083E090E06C
:101D10000E947A26109297011092960160E074E179
:101D200084E090E00E94982660E086E090E00E94C7
:101D30007A266FEF87E090E00E947A2640E050E03C
:101D4000BA0188E090E00E948C2660E08DE090E08F
:101D50000E947A2640E050E0BA0188E190E00E94BB
:101D60008C2660E087E190E00E947A2640E050E017
:101D7000BA018CE190E00E948C2670E060E080E285
:101D800090E00E94982640E050E0BA0188E190E09F
:101D90000E948C260E94720E08950E947A0E089569
:101DA000682F8EE090E00E947A2608950E940C1F12
:101DB0006093F9017093FA018093FB019093FC0109
:101DC0006093F5017093F6018093F7019093F80109
:101DD00008950E940C1F6093F9017093FA0180939B
:101DE000FB019093FC016093F1017093F2018093E9
:101DF000F3019093F4010895089508950E94FD0E53
:101E0000089508950E94010F089584ED91E10E94C4
:101E1000DD1D0E94FC0E0E94FE0E08950E94A0137C
:101E20000895089508950E94110F0E94120F0895B9
:101E30000E94D7110E94AD0408950E94F71E0E94CF
:101E400094110E94BB130E9400190E9401130E946A
:101E5000180F0E94F61580E00E9451160E94C513CB
:101E60000E94020F0895AAE0B0E0E9E3FFE00C94BD
:101E700027260E94241387EEA82E81E0B82E750134
:101E800010E0F70101917F01812F0E94FD111F5F7A
:101E90001A3009F441C00817A1F38091FD0181FDBA
:101EA0000E9403120E940E0FC82E10E0812F0E9484
:101EB000FD11082FF50181915F01081731F1F12C17
:101EC000EE24E394D02ED8268D2D8E21B1F0CC2097
:101ED000A1F0FE821F8391E0802F8E2109F490E013
:101EE00098870E94001F8160782F9A8789874E818A
:101EF0005F8168858A850E944805F394EE0CF6E0C0
:101F0000FF12E2CFF501319700831F5F1A3071F69F
:101F10000E94D60E11E021C00813BFCF0E94001FFF
:101F20008C018091E5019091E60108171907A1F055
:101F30008FEF89838A831B820E94001F8160782F24
:101F40009D838C8349815A816B818D810E944805D4
:101F50001093E6010093E50110E00E94A0130E9497
:101F60008419082F81110E94E90E0E94DD171111BA
:101F700001C001110E94B0160E94C0042A96EAE036
:101F80000C944326CF93DF930E94AF10EC01803274
:101F900022E59207A0F5811532E5930708F072C09B
:101FA000811540E29407F8F4C11581E0D807B8F430
:101FB000C03ED10588F4CD3CD10508F061C0C130E8
:101FC000D10569F0209759F0CE010497813A910527
:101FD00030F0D0E0C0E003C0C83ED105D0F7CE015C
:101FE000DF91CF910895811520E5920708F08CC00C
:101FF0008115904408F495C0DF70D06AF0CF803A24
:1020000042E5940720F5C03882E5D80708F069C09A
:10201000C03622E5D20708F04FC0C03432E5D307FE
:1020200008F443C02C2F26952695277080E2289F20
:10203000900111248C2F8370C1E0D0E002C0CC0F3E
:10204000DD1F8A95E2F7C22BD32BDC68C8CF803E18
:1020500042E5940760F4C03C82E5D80708F448C024
:10206000DC2FCC27CC27DF71C06FD06AB8CF965554
:102070008F3F910511F008F0ACCFDD27D066AFCFD0
:10208000D065ADCF282F2695269540E2249F90015C
:1020900011248370C1E0D0E002C0CC0FDD1F8A950F
:1020A000E2F7C22BD32BDD689ACFCF71D0E0DC2FC3
:1020B000CC27C16FD06A93CF2C2F269526952770F9
:1020C00040E2249F900111248C2F8370C1E0D0E066
:1020D00002C0CC0FDD1F8A95E2F7C22BD32BDA6842
:1020E0007ECFCF71D0E0DC2FCC27C46FD06A77CF02
:1020F0008C2F8F710E945111C82FD0E0DC2FCC277C
:10210000CC27DF71D0626BCF8F710E94511135E007
:10211000D695C7953A95E1F7CF709C2FEC01D06921
:102120005ECF8D2F8F710E94511190E0982F8827DC
:1021300088279F719C012C2BE901E4CF462F7A3030
:1021400030F4663020F4672F0E94C403089590E0B5
:1021500080E008950E949E100E94C20F0895823868
:102160009105B9F1B0F48133910509F47DC048F4CB
:102170008932910509F46DC08A32910509F47BC05A
:1021800008958533910509F45FC08933910509F1FC
:102190000895833E9105D9F138F4803E910529F1E7
:1021A000823E910579F10895863E9105D9F1873EE9
:1021B000910509F43EC0843E910541F520917002DD
:1021C00021FF24C080916F0284FD19C087EE90E04A
:1021D000089520916F02237009F05AC02091700277
:1021E00023FF14C089E290E0089520916F0220FD42
:1021F00038C03091700230FF09C024FF43C090E026
:1022000080E0089520916F0222FDF7CF089520917C
:102210006F0222FD3AC03091700230FD39C024FFB8
:10222000F5CFEDCF20916F0223FFF0CF24FDE7CF54
:10223000CDCF20916F0223FD2EC03091700231FF6F
:10224000EECF84EE90E0089520916F0225FFDECF5F
:10225000C9CF20916F0225FD21C02091700223FF7C
:10226000D5CF89E390E0D2CF20916F0226FFCECF69
:102270008AE290E0089520916F0226FFC7CF81E3A4
:1022800090E0089583EE90E0089582EE90E0089546
:1022900080EE90E0089586EE90E0089585E390E06A
:1022A000089590916F0292FF06C0282F2871283060
:1022B000F9F4877F846093FF06C0282F28712831A6
:1022C000F1F4877E84612091700220FF06C0382FD0
:1022D00038713830D9F4877F816021FF06C0282FFC
:1022E00028712831D1F4877E816194FD877E08951D
:1022F000282F24712430F9F68B7F8860DCCF282FBB
:102300002471243101F78B7E8861DDCF382F317144
:10231000313019F78E7F8860E0CF282F217121316D
:1023200021F78E7E8861E1CF10926B0210926C02D1
:1023300010926D0210926E020895CF92DF92EF928A
:10234000FF926B017C010E94A01381110EC00E94BC
:102350000C1FC61AD70AE80AF90AC0926B02D0927B
:102360006C02E0926D02F0926E02FF90EF90DF90AF
:10237000CF9008950F931F930E94A013882329F0F4
:102380000E940C1F1F910F9108950E940C1F009135
:102390006B0210916C0220916D0230916E02600F01
:1023A000711F821F931FEECF80E0089508950E9451
:1023B0003E0E811102C00E94CD0E0E94490E8093F4
:1023C000FD010E94530E9093700280936F020E9451
:1023D000D6110E944E0E90E00E9405098091940152
:1023E000909195010E942609089508950E94F51183
:1023F000089508950E94F9110895E82FF0E0E45837
:10240000FD4F80810895089580EA8A95F1F7089537
:1024100000C008950E940412089508950E940D12AC
:102420000895A5E0B0E0E7E1F2E10C942B260E94CC
:10243000A013F82E60918602882309F440C085E03D
:10244000E82E8E010F5F1F4FF8018E2D11928A9595
:10245000E9F7862F90E0B80184589D4F0E94D3136E
:102460008823B9F08091710290E045E050E0B80116
:1024700084589D4F0E94562621E02093FE01892B0F
:1024800091F4F12C0E9419048F2D2596E6E00C940E
:1024900047268091FE018823A1F3F8011192EA9466
:1024A000E9F71092FE01A0917102B0E0A458BD4F6F
:1024B00085E0F80101900D928A95E1F7E3CF70E095
:1024C00064587D4F8091710290E084589D4F0E9426
:1024D0005A140E940E12D8CFF894E82FE295EF70AC
:1024E000F0E031A1282F2F7081E090E001C0880F2B
:1024F0002A95EAF7982F9095932391A392A1892B7F
:1025000082A3789408950F931F93CF93DF93C3E42E
:10251000D1E089918F3F11F00E946C1281E0C834A4
:10252000D807B9F7CDE3D1E003E411E089918F3FFB
:1025300011F00E946C120C171D07C1F7DF91CF91AB
:102540001F910F910895B0E0A0E0E9EAF2E10C9448
:102550002926EC01D62E062F10E0C8018D5B9E4F78
:102560007C01FC0180818F3F09F444C0F894E82F7E
:10257000E295EF70F0E091A18F7021E030E001C0B2
:10258000220F8A95EAF7892F822B81A382A12095B9
:10259000282322A378940E940812EDE3F1E031E0B1
:1025A000C12C21912F3F59F1A22FA295AF70B0E01D
:1025B00090968C9190E02F7002C0959587952A9502
:1025C000E2F780FD1CC0832FC82A330F81E0E3347B
:1025D000F80739F7F70180818F3F11F00E946C12E4
:1025E00061E0C11001C060E08D2D0E940A12C00F91
:1025F000D11FC882CDB7DEB7E8E00C94452680E055
:10260000E3CF809102018091020195E0811190E079
:102610009093860285E0891B809371020E94831249
:102620008AE0ECE7F2E0DF01982F1D929A95E9F736
:10263000E2E7F2E0DF011D928A95E9F785E00E946A
:1026400062130E9416040895AAE0B0E0EAE2F3E102
:102650000C942C268E010F5F1F4F8AE0F801119217
:102660008A95E9F7F12C6F2DC8010E94A312F3940B
:10267000F5E0FF12F8CF4AE050E0B80182E792E0BF
:102680000E94562621E0009709F420E0892B41F0B2
:102690008AE0F801A2E7B2E001900D928A95E1F795
:1026A0006091860270E064587D4F45E082E792E0D9
:1026B0000E946313182F0E941112812B2A96E5E0C5
:1026C0000C9448260895CF92DF92EF92FF920F93D9
:1026D0001F93CF936C017B01042F222349F081E0EB
:1026E000809301020E94001F909300028093FF01DB
:1026F000C0910102C1110AC0C0E08C2FCF911F917F
:102700000F91FF90EF90DF90CF9008958091FF019F
:10271000909100020E94181F059770F310E0A80125
:10272000B601C7010E945626892B41F0A801B601C7
:10273000C7010E94632610920102DFCFC0E0FBCFE9
:1027400080910402811107C00E94E425882351F082
:1027500081E08093040281E090910402913009F0BD
:1027600080E0089582E0809304020E94DF25F3CF89
:102770000E94A01308950E94B813809302010E9442
:10278000A01381110E94091408950E94A0138111C1
:1027900002C00E940C14089581E0909105029A30C5
:1027A00008F080E008950F931F93CF93DF93EC011F
:1027B0008B01809105028A30B8F4B801CE010E94E5
:1027C0005714C82F811122C0809105028F3FB9F4A0
:1027D0000E94001F90930302809302028C2FDF91CE
:1027E000CF911F910F910895809102029091030261
:1027F0000E94181F843F914000F7C0E0EFCF8F5F29
:10280000809305028A3020F7C1E0E8CF10920502DC
:10281000E5CF0E947B1C08950E947E1C0895B0E0C5
:10282000A0E0E5E1F4E10C942A267901C82F880F95
:10283000DD0B41155105A9F0FE0193E0EE0FFF1FDE
:102840009A95E1F7ED5FFE4F818192818A5F9D4FFE
:10285000208130E04217530708F49A01A9010E9431
:102860006326CE010E94671DD82E8823D1F0011562
:102870001105B9F083E0CC0FDD1F8A95E1F7FE0169
:10288000ED5FFE4F438150E00417150708F4A801DF
:10289000CD5FDE4F6C817D816A5F7D4FC7010E94F5
:1028A00063268D2DCDB7DEB7E7E00C9446260E9457
:1028B000731508950E9494150895A4E0B0E0E3E62E
:1028C000F4E10C942D2660912302709124028091F2
:1028D0002502909126020E94271F11E0643671059F
:1028E0008105910518F10E94BA116E5F7F4F8F4FDD
:1028F0009F4F69837A838B839C8310E000E030E0F4
:1029000020E044E050E0BE016F5F7F4F84E00E9412
:102910000F14182F882351F00E940C1F609323027C
:10292000709324028093250290932602812F24968F
:10293000E4E00C944926A1E0B0E0E1EAF4E10C9473
:102940002426762E4A015901680101E010E09E011B
:102950002F5F3F4F50E040E070E060E00E940F14B6
:10296000182F882399F1F40160817181828193810C
:102970000E94271F643671058105910500F18701CA
:10298000950150E040E070E060E0872D0E940F1458
:10299000B82EB701C6010E94F71511E0998198136E
:1029A00010E01B2139F00E940C1FF4016083718339
:1029B00082839383812F2196EDE00C944026B7010A
:1029C000C6010E94F71599818913D9CFA701B601D5
:1029D000C5010E946326EECFA1E0B0E0E2EFF4E192
:1029E0000C942B260091480110914901095F1F4F5B
:1029F000EE24E394F12C9E012F5F3F4F4FE152E014
:102A000063E082E00E949B14182F882321F0CE01FE
:102A100001960E941F1A812F2196E6E00C9447260A
:102A2000A5E0B0E0E6E1F5E10C9429266B01009108
:102A30004801109149010F5F1F4F85E0E82EF12CEE
:102A40009E012F5F3F4F4BE152E061E080E00E942A
:102A50009B14882349F095E0FE013196A6E1B2E08F
:102A600001900D929A95E1F795E0E6E1F2E0D6014A
:102A700001900D929A95E1F72596E8E00C94452691
:102A8000B0E0A0E0E6E4F5E10C9427267C015B01D0
:102A90006A010E94CC1301E010E0882311F00AE0E3
:102AA00010E0C1E0D0E0B501C701F6010995811140
:102AB00004C021960C171D072CF4CDB7DEB7EAE051
:102AC0000C944326CC9F9001CD9F300D300D1124E6
:102AD00090E080E045E34A95F1F700000196821707
:102AE0009307C1F7E0CF0F931F93CF93DF93EC01D0
:102AF0008B0140E155E10E944015811106C080E044
:102B0000DF91CF911F910F9108954CEE54E1B801E0
:102B1000CE010E944015882391F34DE554E1B801A0
:102B2000CE010E944015ECCFA1E0B0E0EAE9F5E16A
:102B30000C942D260091480110914901C80101967D
:102B400025E0FB01DC0101900D922A95E1F765E09B
:102B500070E00E94F715F8018083CE0101960E9473
:102B6000141A8981F801878361E070E0CE01019633
:102B70000E94F715F80186836085718582859385AB
:102B8000009112021091130220911402309115024B
:102B9000601771078207930751F0609312027093D8
:102BA000130280931402909315020E949D112196A6
:102BB000E4E00C9449260E94CC200E941D0F0E9444
:102BC000D92008950E94DE200E94330F0E94F82031
:102BD00008950E94991E0E94B2200E94050F0E9433
:102BE000DB150E94E2150E94130FFBCF0895FC0134
:102BF000680F791F8FEF91E3E617F70709F408953F
:102C00002191822728E030E087FF06C0880F8927BE
:102C100021503109C9F7F0CF880FFACFB0E0A0E01A
:102C2000E4E1F6E10C9429266C017B0164E670E096
:102C300088E70E943B1BEC0197FD12C010E000E00A
:102C4000F601E00FF11F849164E670E00E94A71B7B
:102C5000EC01892B29F40F5F1F4F0E151F0581F71B
:102C60000E941D1CCE01CDB7DEB7E8E00C944526CE
:102C700008950E9438160895E7E8F2E080E092E0B7
:102C8000DF019C011D9221503040E1F7F0938E044A
:102C9000E0938D048FEF9FEF90934D0280934C0251
:102CA00008950E9438160E9439168093480280FDCC
:102CB0000FC080E8809347020E94351B6DE070E0F2
:102CC00083E696E00E940E16892B21F080E008959D
:102CD00080E2F0CF8091480263E070E081FD26C081
:102CE00080E696E00E940E16892B81F76DE070E079
:102CF00080E596E00E940E16892B41F70E940C1F7A
:102D0000605A75418F4F9F4F6093890470938A0476
:102D100080938B0490938C040E943C1681E08093F6
:102D20004B0280934A021092490208958DE596E085
:102D3000D9CF2091470236E0839FC0011124629FC2
:102D4000800D911D1124811522E0920714F090E06E
:102D500080E089579D4F90938E0480938D04089551
:102D600080914B02811103C080914A0208950E9414
:102D70000C1F605A75418F4F9F4F60938904709369
:102D80008A0480938B0490938C0480914A02811171
:102D9000EBCF62E070E08EE496E00E940E16892B85
:102DA00019F781E080934A02DFCFB0E0A0E0EBEDBD
:102DB000F6E10C94232680914C0290914D02892BD0
:102DC00009F4BDC080914B02882309F4B8C08091FA
:102DD00049028111B4C00E94B01620914C0230917A
:102DE0004D022115310509F4AAC080E041E050E010
:102DF000082F10E0EA01082E02C0CC0FDD1F0A9454
:102E0000E2F7BE0162237323672B11F48F5FF0CFCB
:102E10009091480290FF98C0880F880F880F809388
:102E20002D0110923001895F80932E0183E0809301
:102E3000310124E630E047E050E06BE271E088E7E2
:102E40000E94D51B892B09F07AC0A80125E0440F08
:102E5000551F2A95E1F78091480280FF87C0E7E27D
:102E6000F2E080E2DF011D928A95E9F70EE411E0BD
:102E70008AE4E82E81E0F82E97E0992E8824839446
:102E8000D801ED918D01D7016D917D01640F752FF2
:102E9000711D69577D4FF0E0E95DFD4F30E020E0A6
:102EA000792C721AA82C022E01C0AA0C0A94EAF7F7
:102EB0006B0190E0D6018D916D018A21A72DA91B90
:102EC000A770BA2E0A2E000CBB0B682E01C0660C30
:102ED000BA94EAF7B62CB195A195B109A770BB27B2
:102EE00001C08695AA95EAF7A62DA82B80818A2B8A
:102EF00080839F5F9830F1F62F5F3F4F31962830E7
:102F0000310571F681E00235180709F0B9CF04E602
:102F100010E020E230E047E252E060E488E70E94FF
:102F2000F61B892B61F4C095D09580914C0290914D
:102F30004D02C823D923D0934D02C0934C02CDB784
:102F4000DEB7EEE00C943F268295880F8076809362
:102F50002D019801369527953695279520933001B8
:102F6000815E80932E011092310163CF49575D4FEE
:102F700004E610E020E230E0D0CF80914A02909148
:102F80004B02911103C091E089270895882369F0CD
:102F900062E070E08CE496E00E940E16892B19F036
:102FA00080914A02089510924A0280914A02EBCF22
:102FB00081E008950E94D81708950F931F93809180
:102FC0004B02882379F180918704909188040E94B4
:102FD000181FC29760F00E94001F9093880480938E
:102FE000870460E080E00E9499160E94DA170E9430
:102FF000D51680914A028823A9F00E940C1F0091E7
:10300000890410918A0420918B0430918C04601BF8
:10301000710B820B930B6F3F7F4F8F4F9F4710F4C5
:103020000E94BD171F910F910895CF93DF93EC017C
:10303000FB018281882309F4D2C09E0130572332DC
:10304000310508F0B2C00E94530E90937002809335
:103050006F02FE01E150F047E232F10520F4ED533A
:10306000F94D0C94192680916F02816080936F0254
:1030700093C0809170028860809370028DC08091AF
:103080006F028260F3CF80916F028460EFCF8091F6
:103090006F028860EBCF809170028160EDCF8091EC
:1030A00070028260E9CF80916F028061DFCF8091F2
:1030B0006F028062DBCF80916F028064D7CF0E9465
:1030C000B20880916F028068D1CF80916F028C60CE
:1030D000CDCF809170028360CFCF80916F028E7FC1
:1030E000C5CF80917002877FC7CF80916F028D7F9F
:1030F000BDCF80916F028B7FB9CF80916F02877FA8
:10310000B5CF809170028E7FB7CF809170028D7F96
:10311000B3CF80916F028F7EA9CF80916F028F7D98
:10312000A5CF80916F028F7BA1CF0E94B2088091C2
:103130006F028F779BCF80916F02837F97CF8091B3
:1031400070028C7F99CF80916F0282FB992790F952
:1031500021E0922790FB82F990FB83F987CF809141
:103160007002982F909591708E7F892B90FB81F93A
:1031700083CF90916F02892F8F7B96FF806476CFEB
:103180000E94B20890916F02892F97FB87F98058AF
:103190006DCF81E00E94D00E80916F0290917002FD
:1031A0000E94580E0E94B20880E0DF91CF910895EE
:1031B00080E0F0CF90916F02892F8F7E94FF806125
:1031C00055CF90916F02892F8E7F90FF81604ECFF7
:1031D00090917002892F877F93FF88604DCF81E0A7
:1031E000E4CF8FE891E00197F1F700C00000089567
:1031F00081E008950E94F81808950E94A013089590
:103200000F931F93CF93DF939091020181E0982752
:1032100090935202282F291B209351029091020172
:103220008093530290910201809350028091020199
:10323000811106C084EF8093330185EF80933201C2
:1032400020913301E22FE295EF70F0E061A12F7041
:1032500081E090E0AC0101C0440F2A95EAF7342FD9
:103260003095362331A322A1242B22A320913201B1
:10327000E22FE295EF70F0E031A12F7001C0880FCE
:103280002A95EAF7982F9095932391A392A1892BE1
:1032900082A30E94F1186091530246E552E0C3E315
:1032A000D1E002E311E0FA0126C02991822F829534
:1032B0008F7090E0DC0190968C9190E02F7002C0AE
:1032C000959587952A95E2F78170D8019D918D019A
:1032D000292F22952F7030E0D90190962C9130E063
:1032E0009F7002C0359527959A95E2F790E020FDF2
:1032F00092E0892B81938E2F841B8617B0F2DF9189
:10330000CF911F910F910895B0E0A0E0EAE8F9E1B4
:103310000C94292610E000E082E0C82ED12C809188
:103320005302181730F0802FCDB7DEB7E8E00C94C9
:103330004526C12FD0E0FE01ED5CFE4F8081E82FD5
:10334000E295EF70F0E0E0A1F0E08F7002C0F5953B
:10335000E7958A95E2F7E170DE01AE5CBE4F4C91D5
:10336000A42FA295AF70B0E090968C9190E04F7032
:1033700002C0959587954A95E2F780FD4DC080E0A3
:103380008E2BDE01AA5ABD4FEC919E2F9370981799
:1033900009F440C0EE0FEE0FE82BEC93E0905202E0
:1033A000E10EEF70F0E0EE5AFE4FCC5ADD4F808117
:1033B0009881890F8883F12C823084F0EE2DF0E023
:1033C000E25BFD4F80818F5F80830E94FD18F82EA5
:1033D000882321F160E08E2D0E94FA1888818F3FAA
:1033E00084F4EE2DF0E0E25BFD4F8081815080831C
:1033F0000E94FD18F82E8823A1F061E08E2D0E9416
:10340000FA188881082E000C990BB6010E94052637
:1034100088830F291F5F83CF82E0B2CFFF24F3940C
:10342000DDCFFF24F394EDCF4091530250E0609143
:10343000520270E0625B7D4F0E9463260895B0E007
:10344000A0E0E5E2FAE10C9429266C01D0E080E0EE
:1034500090915002D91740F081110E94E90ECDB72A
:10346000DEB7E8E00C944526F0905102FD0E0F2DDA
:1034700010E0025B1D4FF601ED0FF11DC081F80158
:103480009081C91BEC2E1E1444F09C2FC7FD90E0C8
:10349000C91BC1110DC0DF5FDBCFEA94F801808149
:1034A0008F5F808360E08F2D0E94FA1881E0EBCF60
:1034B000CF5FF80180818150808361E08F2D0E9471
:1034C000FA1881E0E6CFCF93DF93EB0186319C477A
:1034D00011F50E94500D9A81992399F08A7A91E012
:1034E00009F490E090935802811109C089E20E948A
:1034F000020D0E94910D80E0DF91CF91089585E348
:10350000F6CF80915802811104C089E20E940A0D11
:10351000F0CF85E3FBCF81E0EFCF0F931F93CF93E5
:10352000DF93C42FD22FFC0182818823C9F04093FE
:103530005B020E94001F90935A028093590280E21E
:103540008C0F883040F4C77081E001C0880FCA95A5
:10355000EAF70E940306DF91CF911F910F91089522
:1035600010915B02141332C08091590290915A025B
:103570000E94181F8436910548F5C0E2CD0F1D1733
:10358000B9F080E2810F883040F4177081E001C00B
:10359000880F1A95EAF70E940A06C83048F481E0BD
:1035A0009D2F977001C0880F9A95EAF70E94030635
:1035B000802F0E94FA05C83070F6D77081E001C0F4
:1035C000880FDA95EAF70E940A06C5CF80E28C0FD1
:1035D000883008F6C77081E001C0880FCA95EAF705
:1035E000F2CF0F93DB0188519C4787309105A0F5FE
:1035F000FC01EB51F94D0C94192606E221EE41EE47
:103600006AE17CE7CD010E948D1A80E00F91089558
:1036100007E225EE45EE6BE17CE7F4CF06E221EE12
:1036200040EE68E17CE7EECF07E225EE44EE69E18B
:103630007CE7E8CF06E221EE42EE6CE17CE7E2CFE8
:1036400007E225EE46EE6DE17CE7DCCF08E221E003
:1036500045EE6EE17CE7D6CF12968C91882319F067
:1036600010925B02D3CF81E0D1CF1092B9008CE0F1
:103670008093B8000895B0E0A0E0E1E4FBE10C9491
:103680002626B82EEB010E94001F6C01EE24E39465
:10369000F12CC431D10560F025E0E22EF12CCF3FB2
:1036A000DC0731F0CE0164E170E00E94F1257B017E
:1036B00084EAA82E94E8992E1092BC00A092BC0037
:1036C0000E94001F8C018091BC0087FF0DC080917B
:1036D000B900887F8830F9F08091B900887F803107
:1036E000D1F00FEF1FEF08C0C8010E94181FE816A5
:1036F000F90648F70EEF1FEFCF3FDC07E9F2C601EE
:103700000E94181FC817D907B8F6C801CDB7DEB791
:10371000EBE00C944226B092BB009092BC000E9459
:10372000001F8C018091BC0087FF0AC08091B90006
:10373000887F883111F08034A1F610E000E0E5CFF9
:10374000C8010E94181FE816F90660F7D3CF0F933F
:103750001F93CF93DF93EB018093BB0084E88093AA
:10376000BC000E94001F8C018091BC0087FF11C02B
:103770002091B900287F81E090E0283211F490E098
:1037800080E0919581959109DF91CF911F910F91E3
:103790000895CF3FDC0741F3C8010E94181FC817E6
:1037A000D90710F78EEF9FEFEFCFB0E0A0E0EBED81
:1037B000FBE10C9429266B018A017901B9010E9471
:1037C0003B1BE6010C0D1D1DC017D10711F097FF23
:1037D00008C024E92093BC00CDB7DEB7E8E00C9424
:1037E0004526B70189910E94A71BEECFB0E0A0E06B
:1037F000ECEFFBE10C942926C62F6A017901B80190
:103800000E943B1B97FD0CC0B8018C2F0E94A71B88
:10381000E601EC0CFD1CCE15DF0511F097FF08C08A
:1038200024E92093BC00CDB7DEB7E8E00C94452630
:10383000B80189910E94A71BEECF84E98093BC0058
:1038400008958EE14A9B02C08150E1F74A9BFECF6A
:1038500008955A9880E28A95F1F75A9A0895FC01E2
:103860003BE03A95F1F798E020E080E031E040E17C
:103870004A95F1F7880F4A9B02C08160232742E0F6
:103880004A95F1F7000040E14A95F1F7915079F738
:1038900090E19A95F1F799B132E03A95F1F700008D
:1038A00040E14A95F1F792FB992790F99227208100
:1038B000920F90830895A1E0B0E0E1E6FCE10C9462
:1038C0002B2619828C017C01E60EF11C0E151F05BA
:1038D00041F481E09981911180E02196E6E00C9419
:1038E00047260E94211CCE0101960E942F1CF80140
:1038F00081938F01EBCF529A5A9A089552985A9A0F
:10390000EA9AE9E6F0E080818F7C80830895615037
:10391000770B91E001C0990F6A95EAF720E031E05A
:10392000911108C0222391F05A9A80E28A95F1F70A
:103930005A980895492F482339F05A9A232740E28C
:103940004A95F1F79695ECCF5A98F9CF5A98EDCF62
:10395000FF920F931F93CF93DF93EC018C01060F1F
:10396000111DC017D10729F4CDB7DEB7E5E00C94DF
:103970004826F9900E94291C68E08F2D0E94871C20
:10398000F0CF1F920F920FB60F9211240F931F9337
:103990002F933F934F935F936F937F938F939F9357
:1039A000AF93BF93EF93FF93CF93DF930F92CDB776
:1039B000DEB719820E94211CCE0101960E942F1CA5
:1039C000082F069506950695282F22952570902F8D
:1039D0009570290F922F937026952695920F982710
:1039E00097708981982B09F05CC0063008F059C0A7
:1039F00080E18A95F1F75A9A529A82E08A95F1F716
:103A000000C05A9888E0089F80011124D801AD5F5A
:103A1000BE4F1696ED91FC9117973097A9F06091E3
:103A200048017091490114962D913C911597260FEC
:103A3000371F11968D919C911297680F791F1396DD
:103A40004C9113978C910995F801ED5FFE4F6381BE
:103A5000662351F02091480130914901848195817C
:103A6000820F931F0E94A81C0E94291C80E18A9546
:103A7000F1F75A9852985A9A80E18A95F1F7F8012D
:103A8000ED5FFE4F6081662351F020914801309137
:103A9000490181819281820F931F0E945B1C0E94C9
:103AA000211C0F90DF91CF91FF91EF91BF91AF91CA
:103AB0009F918F917F916F915F914F913F912F9146
:103AC0001F910F910F900FBE0F901F9018950F939D
:103AD0001F93CF93DF93EC0106970CF04CC0F89442
:103AE000529A5A9885E08A95F1F700009C2F969596
:103AF00095708C2F8570980F892F83709695969569
:103B000023E0CC0FDD1F2A95E1F7980F8E01092BDA
:103B10000E94291C00C068E0802F0E94871C80E161
:103B20008A95F1F752985A9A4A9B1EC087E090E016
:103B30004A991CC0FE01ED5FFE4F63816623F9F0D8
:103B4000209148013091490184819581820F931F12
:103B50000E945B1C811113C0529A5A9A7894DF918B
:103B6000CF911F910F91089500C0DECF019729F4E6
:103B7000529A5A9A789480E0F2CF00C0D9CF0E942E
:103B8000211C80E28A95F1F75A98529A80E18A9531
:103B9000F1F7CD5FDE4F6881662351F02091480137
:103BA0003091490189819A81820F931F0E94A81C3C
:103BB0000E94291C789481E0D2CF90936301809376
:103BC0006201089590935E0280935D0208950E94C1
:103BD000A013811103C080915C020895E0915D0201
:103BE000F0915E02309729F00190F081E02D099567
:103BF000089580E00895E0915D02F0915E023097B3
:103C000021F00280F381E02D099508959C012E5F3B
:103C10003F4FAC01485F5F4F80E02417350709F440
:103C20000895F90191919F019923B9F38F5FF5CF21
:103C3000662349F0FC01329608962191261729F057
:103C4000E817F907D1F780E0089581E008959C0115
:103C5000FC0132969FEF80E04191461751F09F3F63
:103C600019F4411101C0982F8F5F8630A9F79F3F4B
:103C700009F40895290F311D97FD3A95F9016283E2
:103C80000895FC01329608962191261303C0DF01A6
:103C900011971C92E817F907B9F708950E94271E9B
:103CA00008950E94411E0895029626E0FC0111929B
:103CB0002A95E9F7089508950E945B1E08958111E1
:103CC00006C081E080935F020E945C1E089582E03E
:103CD000F9CF83E080935F020E945C1E08950E94EA
:103CE0005F1E089581E080935F020E945C1E08952C
:103CF0000E94721E0895089508950E947C1E0895E2
:103D0000089508950E947B1E0895CF930E94801EFF
:103D10000E9424130E94811EC0E08C2F0E94FD117E
:103D2000811105C0CF5FCA30C1F7CF91089581E0FE
:103D3000FCCF85B7806885BF85B7806885BF08954B
:103D40001F921FB61F9211248F939F93AF93BF931F
:103D500080916002811113C080918F049091900432
:103D6000A0919104B09192044196A11DB11D809340
:103D70008F0490939004A0939104B0939204BF9108
:103D8000AF919F918F911F901FBE1F9018958091AA
:103D90009704843031F10E948B041092600288E114
:103DA00090E020E40FB6F894A895809360000FBED1
:103DB0002093600083B7817F846083BF83B7816075
:103DC00083BF7894889583B78E7F83BF0FB6F894AE
:103DD000A8958091600088618093600010926000D7
:103DE0000FBE08950E94B2080E949204089582E0D6
:103DF00084BD93E095BD9AEF97BD80936E000895C2
:103E00002FB7F89480918F0490919004A091910421
:103E1000B09192042FBF08952FB7F89460918F044A
:103E20007091900480919104909192042FBF089515
:103E30009C014FB7F89480918F0490919004A091C9
:103E40009104B09192044FBF821B930B0895CF92BF
:103E5000DF92EF92FF922FB7F894C0908F04D0902A
:103E60009004E0909104F09092042FBFA701960176
:103E7000261B370B480B590BCA01B901FF90EF9075
:103E8000DF90CF90089578941F921FB61F9211244F
:103E90008F939F93AF93BF9380918F0490919004E1
:103EA000A0919104B09192040196A11DB11D80933F
:103EB0008F0490939004A0939104B0939204BF91C7
:103EC000AF919F918F911F901FBE1F90189587E70C
:103ED00097E7909301088093000888E19AE00FB675
:103EE000F894A895809360000FBE90936000FFCF78
:103EF00088E19AE00FB6F894A895809360000FBE11
:103F000090936000FFCF809169020895089508950D
:103F10009B01BA01909197049430E9F48F708093DB
:103F2000E9009FEF8091E800915085FD06C085ED86
:103F30008A95F1F700009111F5CF8091E80085FF97
:103F40000AC050E040E0C9010E9458218091E80079
:103F50008E778093E8000895CF93DF93EC0148E0DB
:103F600050E0BC0181E00E94881F88E0FE01A1E6CC
:103F7000B2E001900D928A95E1F7DF91CF9108951B
:103F800080919604811109C00E94E8220E94452375
:103F90008091E20084608093E2000895109296047C
:103FA00008950E94721E08956091930481E061114A
:103FB00001C080E00E94691E08959091970481E0FD
:103FC000943009F080E0609193040E946F1E089580
:103FD00042E061EC81E00E9464229091970481E0CC
:103FE000943009F080E0609193040E945F1E089570
:103FF00080919904833009F461C030F48130D1F1AB
:10400000823009F49EC008958A3009F48AC08B304A
:1040100009F46FC0893009F050C080919804813252
:1040200009F04BC080919C0490919D04892B09F06C
:1040300044C08091E800877F8093E8008091E80089
:1040400082FF37C09091F3008091F200029731F423
:104050008091F100813011F0863021F48091F100DF
:10406000809369028091E8008B778093E8000E943A
:10407000982223C080919804813AF9F48091E80055
:10408000877F8093E80080919C0490919D04892B08
:1040900061F468E081E692E070E00E94A7218091DF
:1040A000E8008B778093E800089560E090E080E07E
:1040B000F3CF809197048111C1CF08958091980426
:1040C000813AD9F780919C0490919D04892BA9F79E
:1040D0008091E800877F8093E8008091E80080FF6E
:1040E000FCCF80913C018093F1008091E8008E77B5
:1040F000BCCF80919804813201F780919C0490910B
:104100009D04892BD1F68091E800877F8093E80099
:104110000E94982280919A0480933C010E94B208E8
:10412000089580919804813241F68091E800877F5C
:104130008093E8000E94982280919B0480936A02F9
:10414000089580919804813A09F0B7CF8091E800F2
:10415000877F8093E8008091E80080FFFCCF80910A
:104160006A02C1CF84B7877F84BF0FB6F894A89541
:1041700080916000886180936000109260000FBEA3
:1041800080E890E00FB6F89480936100909361000E
:104190000FBE0E94781E08950E94E8220E944523C7
:1041A000E2EEF0E080818460808378940E94C425F0
:1041B000089584E391E00E94E21D089580919704A0
:1041C000853031F480919704853019F00E94F21EF9
:1041D00008950E94C71E80919504882399F30E9438
:1041E000851E882379F30E9442210E94B208EACFFB
:1041F00008950E94FC200895292F3327233031058C
:10420000C9F058F42130310599F122303105A9F176
:1042100090E080E030E020E01DC02132310509F15E
:1042200022323105A9F780E490E022ED36E0672BD9
:1042300079F710C099278130910581F0009729F016
:10424000029731F7E0E7F6E002C0EAE9F6E0849190
:1042500090E09F01FA01318320830895EEE7F6E0B4
:10426000F6CF89E090E020EB36E0672B89F6F2CFBD
:1042700082E190E020EC36E0EDCF82E290E02EE9A2
:1042800036E0E8CF80E189BD82E189BD09B400FE56
:10429000FDCF8091D8008F7D8093D8008091E00081
:1042A00082608093E0008091E00081FDFCCF089562
:1042B000AF92BF92CF92DF92FF920F931F93CF9353
:1042C000DF936C01EB018A010E94B722F82E811165
:1042D00023C00115110539F0F80180819181C81BB7
:1042E000D90BC80ED91EB12CA12C2097A9F0809112
:1042F000E80085FD22C08091E8008E778093E80079
:1043000001151105A1F0F80180819181A80EB91E57
:10431000B182A08285E0F82E8F2DDF91CF911F9181
:104320000F91FF90DF90CF90BF90AF9008950E94C3
:10433000B7228823D1F2F82EEFCFF60181916F01D9
:104340008093F1002197FFEFAF1ABF0ACECFFC0197
:1043500080919E0490919F0486179707A0F06115A5
:10436000710529F49091E8009E779093E80090E021
:104370006115710551F4911108C08091E80082FF28
:1043800034C080E00895BC01F2CF80919704882367
:10439000C1F18530C1F18091E80083FD30C080918A
:1043A000E80082FDEACF8091E80080FFE1CF8091B4
:1043B000F3002091F200382F6115710519F02830B3
:1043C000310558F091E02830310509F090E0209156
:1043D000E8002E772093E800CBCF81918093F10005
:1043E000615071092F5F3F4FE7CF80919704882379
:1043F00041F0853041F08091E80083FFBECF81E03D
:10440000089582E0089583E00895FC0180919E0460
:1044100090919F0486179707A0F06115710529F404
:104420008091E8008E778093E80090E06115710537
:1044300051F4911108C08091E80082FF35C080E0FE
:104440000895BC01F2CF809197048823C9F185308B
:10445000C9F18091E80083FD31C08091E80082FDC0
:10446000EACF8091E80080FFE1CF8091F3002091B6
:10447000F200382F6115710519F02830310558F018
:1044800091E02830310509F090E08091E8008E77C6
:104490008093E800CBCF84918093F10031966150F6
:1044A00071092F5F3F4FE6CF80919704882341F039
:1044B000853041F08091E80083FFBDCF81E0089511
:1044C00082E0089583E00895982F973028F08F7048
:1044D0008093E90081E008959093E900242F762FDE
:1044E00050E0981731F07091EC002091ED00509160
:1044F000F00021FD02C09F5FE8CF3091EB003E7FCE
:104500003093EB003091ED003D7F3093ED00309122
:10451000EB0031603093EB007093EC002093ED00E2
:104520005093F0002091EE0027FDE5CF80E0089544
:104530008091980487FF13C08091E80082FF06C035
:104540008091E8008B778093E80004C08091970405
:104550008111F2CF0895809197048823D9F3809137
:10456000E80080FFF8CF8091E8008E77ECCF2091B3
:10457000E4003091E50095E6A9012091EC00822F3E
:10458000817020FF06C08091E80080FF06C080E0B7
:1045900008952091E80022FD1AC080919704882395
:1045A00089F0853089F08091EB0085FD0FC0209166
:1045B000E4003091E50042175307F9F29150E1F61B
:1045C00084E0089582E0089583E0089581E00895ED
:1045D0000E9457230E945F23E0EEF0E0808181601B
:1045E0008083E8EDF0E080818F77808319BCA7EDB0
:1045F000B0E08C918E7F8C9380818F7E808310922F
:10460000960408950F931F93CF93DF930E9457232F
:104610000E945F23C8EDD0E088818F7788838881EE
:104620008068888388818F7D888319BC1092970465
:1046300010929304109295041092940400EE10E0EE
:10464000F80180818B7F808388818160888342E04C
:1046500060E080E00E946422E1EEF0E080818E7FE5
:104660008083E2EEF0E080818160808380818860D9
:104670008083F80180818E7F808388818061888338
:10468000DF91CF911F910F910895E8EDF0E08081C7
:104690008F7E8083E7EDF0E080818160808384E01D
:1046A00082BF81E0809396040E9402230895E8ED82
:1046B000F0E080818E7F80831092E2000895109256
:1046C000DA001092E10008951F920F920FB60F9238
:1046D00011242F933F934F935F936F937F938F9307
:1046E0009F93AF93BF93EF93FF938091E10082FF7D
:1046F0000BC08091E20082FF07C08091E1008B7FB8
:104700008093E1000E94C3258091DA0080FF19C0E8
:104710008091D80080FF15C08091DA008E7F809351
:10472000DA008091D90080FF96C080E189BD82E1E6
:1047300089BD09B400FEFDCF81E0809397040E94FB
:10474000C01F8091E10080FF19C08091E20080FFCE
:1047500015C08091E2008E7F8093E2008091E2009C
:1047600080618093E2008091D80080628093D800BD
:1047700019BC85E0809397040E94D41F8091E100CA
:1047800084FF2BC08091E20084FF27C080E189BDB7
:1047900082E189BD89B5982F917080FFFBCF809110
:1047A000D8008F7D8093D8008091E1008F7E809328
:1047B000E1008091E2008F7E8093E2008091E20030
:1047C00081608093E20080919304882309F449C0BA
:1047D00084E0809397040E94DD1F8091E10083FFB5
:1047E00029C08091E20083FF25C08091E100877F8E
:1047F0008093E10082E0809397041092930480916B
:10480000E1008E7F8093E1008091E2008E7F8093B3
:10481000E2008091E20080618093E20042E060E08B
:1048200080E00E9464228091F00088608093F00014
:104830000E94D11FFF91EF91BF91AF919F918F91F6
:104840007F916F915F914F913F912F910F900FBE8C
:104850000F901F90189519BC109297040E94CE1FBC
:1048600070CF8091E30087FD93E090939704B3CFDE
:104870001F920F920FB60F9211242F933F934F93D5
:104880005F936F937F938F939F93AF93BF93CF93D8
:10489000DF93EF93FF93D091E900DF708091EC00FC
:1048A000C82FC17080FDC0E81092E9008091F0002F
:1048B000877F8093F00078940E947C241092E90016
:1048C0008091F00088608093F000CD2BCF70C09372
:1048D000E900FF91EF91DF91CF91BF91AF919F914F
:1048E0008F917F916F915F914F913F912F910F9099
:1048F0000FBE0F901F901895AAE2B0E0E2E8F4E234
:104900000C942E2688E994E02091F100FC0121937B
:10491000CF01F4E0803A9F07B9F70E94F81F809119
:10492000E80083FF1EC180919804909199049A3009
:1049300008F017C1E92FF0E0E451F94D0C94192665
:10494000803899F0823809F00CC180919C048F70F6
:10495000873008F006C18093E9008091EB0085FB69
:10496000882780F91092E90006C080919404909104
:104970009504911182609091E800977F9093E800F0
:104980008093F1001092F1008091E8008E77E5C0ED
:10499000882309F4D3C0823009F0E3C080919A04DF
:1049A0008111D6C080919C048F702FEF280F263084
:1049B00008F0D7C08093E9002091EB0020FFC8C029
:1049C000933031F48091EB0080628093EB00C0C0A3
:1049D0009091EB0090619093EB0021E030E001C0FA
:1049E000220F8A95EAF72093EA001092EA0080915C
:1049F000EB008860EACF8111B4C010919A041F7750
:104A00008091E3008078812B8093E3008091E8001F
:104A1000877F8093E8000E9498228091E80080FFC1
:104A2000FCCF8091E30080688093E30082E0111165
:104A300083E08093970495C08058823008F091C03D
:104A400080919A0490919B048C3D23E09207A1F5FC
:104A500083E08A838AE289834FB7F894DE01139654
:104A600020E03EE051E2E32FF0E050935700E49164
:104A700020FF03C0E295EF703F5FEF708E2F90E054
:104A8000EA30C0F0C7968D939D932F5F243159F77C
:104A90004FBF8091E800877F8093E8006AE270E072
:104AA000CE0101960E94A7218091E8008B77809328
:104AB000E80057C0C096E7CF60919C0470919D04B8
:104AC000AE014F5F5F4F0E94F920BC01892B09F4B2
:104AD00048C09091E800977F9093E80089819A817F
:104AE0000E940522E1CF8038E1F58091E800877FC0
:104AF0008093E800809193048093F10045CF811169
:104B000030C090919A04923060F58091E800877FE0
:104B10008093E800909393040E94982280919304DC
:104B2000882311F084E005C08091E30087FDFACF6F
:104B300081E0809397040E94E81F13C080919A043B
:104B4000813079F481E0933009F080E0809395041E
:104B50001092E9008091E800877F8093E8000E942E
:104B600098228091E80083FF0AC08091E800877F47
:104B70008093E8008091EB0080628093EB00AA961E
:104B8000E3E00C944A260895CF93809197048823FC
:104B9000A1F0C091E900CF709091EC00892F817055
:104BA00090FD80E8C82B1092E9008091E80083FD19
:104BB0000E947C24CF70C093E900CF9108950E9499
:104BC000E822109297040895E8EDF0E0808180617A
:104BD00080838AE18A95F1F700C08091D9008170C5
:104BE0000895AA1BBB1B51E107C0AA1FBB1FA61734
:104BF000B70710F0A61BB70B881F991F5A95A9F786
:104C000080959095BC01CD01089597FB072E16F471
:104C1000009407D077FD09D00E94F12507FC05D04C
:104C20003EF4909581959F4F0895709561957F4FC3
:104C30000895EE0FFF1F0590F491E02D09942F9237
:104C40003F924F925F926F927F928F929F92AF921C
:104C5000BF92CF92DF92EF92FF920F931F93CF9369
:104C6000DF93CDB7DEB7CA1BDB0B0FB6F894DEBF00
:104C70000FBECDBF09942A88398848885F846E8426
:104C80007D848C849B84AA84B984C884DF80EE8070
:104C9000FD800C811B81AA81B981CE0FD11D0FB679
:104CA000F894DEBF0FBECDBFED010895FB01DC011E
:104CB00004C08D910190801921F441505040C8F7F3
:104CC000881B990B0895FB01DC0102C001900D9235
:104CD00041505040D8F70895F999FECF92BD81BD5B
:104CE000F89A992780B50895A8E1B0E042E050E035
:104CF0000C94A026262FF999FECF92BD81BDF89A7B
:104D0000019700B4021639F01FBA20BD0FB6F8940F
:104D1000FA9AF99A0FBE08950396272F0E947B26D0
:104D20000E947A26252F0E947B26242F0C947B2616
:104D30000196272F0E947B260C947A26DC01CB015A
:104D4000FC01F999FECF06C0F2BDE1BDF89A31969B
:104D500000B40D9241505040B8F70895F894FFCF39
:104D60004D064D06A806A8067D067D0605087D06AB
:104D70001D079007A007A0070E082F0818081B089A
:104D800022081E0827086D18E11875183F184318E7
:104D9000791847187D1889185318DA1857188D187C
:104DA0005B189118B9185F189518C01865189B18EA
:104DB000A3184B1881184F18851869189F18AF1839
:104DC000C918D81839187118E8180E1B141BFD1AC9
:104DD000081B1A1B201B261BA024C824B125C8248D
:0C4DE000B125FB241C25B12573257F257F
:104DEC00DB010100000001000000000000000501D3
:104DFC000000000000000106000000000000010798
:104E0C0000000004080000000000000021007F22C8
:104E1C000003F4F5831FAC1F871F861F01F6F731C3
:104E2C003332366697C6343506020008101818104F
:104E3C00080000FF0100010000FFFF00000100015D
:024E4C00FF0065
:00000001FF
